{
  "_format": "hh-sol-artifact-1",
  "contractName": "CertificateVerification",
  "sourceName": "contracts/CertificateVerification.sol",
  "abi": [
    {
      "inputs": [
        {
          "internalType": "address",
          "name": "_userManagementAddress",
          "type": "address"
        }
      ],
      "stateMutability": "nonpayable",
      "type": "constructor"
    },
    {
      "anonymous": false,
      "inputs": [
        {
          "indexed": false,
          "internalType": "string",
          "name": "certificateId",
          "type": "string"
        },
        {
          "indexed": false,
          "internalType": "string",
          "name": "studentName",
          "type": "string"
        },
        {
          "indexed": false,
          "internalType": "string",
          "name": "courseName",
          "type": "string"
        },
        {
          "indexed": false,
          "internalType": "uint256",
          "name": "issueDate",
          "type": "uint256"
        },
        {
          "indexed": false,
          "internalType": "string",
          "name": "ipfsHash",
          "type": "string"
        },
        {
          "indexed": false,
          "internalType": "address",
          "name": "studentAddress",
          "type": "address"
        }
      ],
      "name": "CertificateIssued",
      "type": "event"
    },
    {
      "anonymous": false,
      "inputs": [
        {
          "indexed": false,
          "internalType": "string",
          "name": "certificateId",
          "type": "string"
        },
        {
          "indexed": false,
          "internalType": "bool",
          "name": "isApproved",
          "type": "bool"
        }
      ],
      "name": "CertificateVerified",
      "type": "event"
    },
    {
      "inputs": [
        {
          "internalType": "string",
          "name": "",
          "type": "string"
        }
      ],
      "name": "certificates",
      "outputs": [
        {
          "internalType": "string",
          "name": "studentName",
          "type": "string"
        },
        {
          "internalType": "string",
          "name": "courseName",
          "type": "string"
        },
        {
          "internalType": "uint256",
          "name": "issueDate",
          "type": "uint256"
        },
        {
          "internalType": "string",
          "name": "certificateId",
          "type": "string"
        },
        {
          "internalType": "string",
          "name": "ipfsHash",
          "type": "string"
        },
        {
          "internalType": "bool",
          "name": "isVerified",
          "type": "bool"
        },
        {
          "internalType": "bool",
          "name": "isRejected",
          "type": "bool"
        },
        {
          "internalType": "address",
          "name": "studentAddress",
          "type": "address"
        }
      ],
      "stateMutability": "view",
      "type": "function"
    },
    {
      "inputs": [
        {
          "internalType": "string",
          "name": "certificateId",
          "type": "string"
        }
      ],
      "name": "getCertificate",
      "outputs": [
        {
          "components": [
            {
              "internalType": "string",
              "name": "studentName",
              "type": "string"
            },
            {
              "internalType": "string",
              "name": "courseName",
              "type": "string"
            },
            {
              "internalType": "uint256",
              "name": "issueDate",
              "type": "uint256"
            },
            {
              "internalType": "string",
              "name": "certificateId",
              "type": "string"
            },
            {
              "internalType": "string",
              "name": "ipfsHash",
              "type": "string"
            },
            {
              "internalType": "bool",
              "name": "isVerified",
              "type": "bool"
            },
            {
              "internalType": "bool",
              "name": "isRejected",
              "type": "bool"
            },
            {
              "internalType": "address",
              "name": "studentAddress",
              "type": "address"
            }
          ],
          "internalType": "struct CertificateVerification.Certificate",
          "name": "",
          "type": "tuple"
        }
      ],
      "stateMutability": "view",
      "type": "function"
    },
    {
      "inputs": [
        {
          "internalType": "address",
          "name": "student",
          "type": "address"
        }
      ],
      "name": "getCertificatesByStudent",
      "outputs": [
        {
          "components": [
            {
              "internalType": "string",
              "name": "studentName",
              "type": "string"
            },
            {
              "internalType": "string",
              "name": "courseName",
              "type": "string"
            },
            {
              "internalType": "uint256",
              "name": "issueDate",
              "type": "uint256"
            },
            {
              "internalType": "string",
              "name": "certificateId",
              "type": "string"
            },
            {
              "internalType": "string",
              "name": "ipfsHash",
              "type": "string"
            },
            {
              "internalType": "bool",
              "name": "isVerified",
              "type": "bool"
            },
            {
              "internalType": "bool",
              "name": "isRejected",
              "type": "bool"
            },
            {
              "internalType": "address",
              "name": "studentAddress",
              "type": "address"
            }
          ],
          "internalType": "struct CertificateVerification.Certificate[]",
          "name": "",
          "type": "tuple[]"
        }
      ],
      "stateMutability": "view",
      "type": "function"
    },
    {
      "inputs": [],
      "name": "getPendingCertificates",
      "outputs": [
        {
          "components": [
            {
              "internalType": "string",
              "name": "studentName",
              "type": "string"
            },
            {
              "internalType": "string",
              "name": "courseName",
              "type": "string"
            },
            {
              "internalType": "uint256",
              "name": "issueDate",
              "type": "uint256"
            },
            {
              "internalType": "string",
              "name": "certificateId",
              "type": "string"
            },
            {
              "internalType": "string",
              "name": "ipfsHash",
              "type": "string"
            },
            {
              "internalType": "bool",
              "name": "isVerified",
              "type": "bool"
            },
            {
              "internalType": "bool",
              "name": "isRejected",
              "type": "bool"
            },
            {
              "internalType": "address",
              "name": "studentAddress",
              "type": "address"
            }
          ],
          "internalType": "struct CertificateVerification.Certificate[]",
          "name": "",
          "type": "tuple[]"
        }
      ],
      "stateMutability": "view",
      "type": "function"
    },
    {
      "inputs": [
        {
          "internalType": "string",
          "name": "courseName",
          "type": "string"
        },
        {
          "internalType": "string",
          "name": "certificateId",
          "type": "string"
        },
        {
          "internalType": "uint256",
          "name": "issueDate",
          "type": "uint256"
        },
        {
          "internalType": "string",
          "name": "ipfsHash",
          "type": "string"
        }
      ],
      "name": "issueCertificate",
      "outputs": [],
      "stateMutability": "nonpayable",
      "type": "function"
    },
    {
      "inputs": [],
      "name": "owner",
      "outputs": [
        {
          "internalType": "address",
          "name": "",
          "type": "address"
        }
      ],
      "stateMutability": "view",
      "type": "function"
    },
    {
      "inputs": [
        {
          "internalType": "uint256",
          "name": "",
          "type": "uint256"
        }
      ],
      "name": "pendingCertificates",
      "outputs": [
        {
          "internalType": "string",
          "name": "",
          "type": "string"
        }
      ],
      "stateMutability": "view",
      "type": "function"
    },
    {
      "inputs": [
        {
          "internalType": "address",
          "name": "",
          "type": "address"
        },
        {
          "internalType": "uint256",
          "name": "",
          "type": "uint256"
        }
      ],
      "name": "studentCertificates",
      "outputs": [
        {
          "internalType": "string",
          "name": "",
          "type": "string"
        }
      ],
      "stateMutability": "view",
      "type": "function"
    },
    {
      "inputs": [],
      "name": "userManagement",
      "outputs": [
        {
          "internalType": "contract UserManagement",
          "name": "",
          "type": "address"
        }
      ],
      "stateMutability": "view",
      "type": "function"
    },
    {
      "inputs": [
        {
          "internalType": "string",
          "name": "certificateId",
          "type": "string"
        },
        {
          "internalType": "bool",
          "name": "isApproved",
          "type": "bool"
        }
      ],
      "name": "verifyCertificate",
      "outputs": [],
      "stateMutability": "nonpayable",
      "type": "function"
    }
  ],
  "bytecode": "0x60806040523480156200001157600080fd5b506040516200337b3803806200337b83398181016040528101906200003791906200012a565b33600460006101000a81548173ffffffffffffffffffffffffffffffffffffffff021916908373ffffffffffffffffffffffffffffffffffffffff16021790555080600360006101000a81548173ffffffffffffffffffffffffffffffffffffffff021916908373ffffffffffffffffffffffffffffffffffffffff160217905550506200015c565b600080fd5b600073ffffffffffffffffffffffffffffffffffffffff82169050919050565b6000620000f282620000c5565b9050919050565b6200010481620000e5565b81146200011057600080fd5b50565b6000815190506200012481620000f9565b92915050565b600060208284031215620001435762000142620000c0565b5b6000620001538482850162000113565b91505092915050565b61320f806200016c6000396000f3fe608060405234801561001057600080fd5b506004361061009e5760003560e01c8063c908947e11610066578063c908947e14610164578063e08b2ab614610180578063ea092518146101b0578063ed0f2e75146101e0578063f1414a4e146102105761009e565b806364eeb08b146100a35780636a767f50146100c15780638da5cb5b146100df5780638f2b91ea146100fd578063c3934f0e14610134575b600080fd5b6100ab61022c565b6040516100b89190612078565b60405180910390f35b6100c96105f9565b6040516100d691906120f9565b60405180910390f35b6100e761061f565b6040516100f49190612123565b60405180910390f35b61011760048036038101906101129190612287565b610645565b60405161012b989796959493929190612338565b60405180910390f35b61014e6004803603810190610149919061242a565b6108fd565b60405161015b919061246a565b60405180910390f35b61017e600480360381019061017991906124b8565b6109b6565b005b61019a60048036038101906101959190612514565b610d64565b6040516101a7919061246a565b60405180910390f35b6101ca60048036038101906101c59190612541565b610e10565b6040516101d79190612078565b60405180910390f35b6101fa60048036038101906101f59190612287565b6112e8565b6040516102079190612633565b60405180910390f35b61022a60048036038101906102259190612655565b611662565b005b6060600060028054905067ffffffffffffffff81111561024f5761024e61215c565b5b60405190808252806020026020018201604052801561028857816020015b610275611d30565b81526020019060019003908161026d5790505b50905060005b6002805490508110156105f1576000600282815481106102b1576102b0612710565b5b906000526020600020016040516102c89190612842565b9081526020016040518091039020604051806101000160405290816000820180546102f29061276e565b80601f016020809104026020016040519081016040528092919081815260200182805461031e9061276e565b801561036b5780601f106103405761010080835404028352916020019161036b565b820191906000526020600020905b81548152906001019060200180831161034e57829003601f168201915b505050505081526020016001820180546103849061276e565b80601f01602080910402602001604051908101604052809291908181526020018280546103b09061276e565b80156103fd5780601f106103d2576101008083540402835291602001916103fd565b820191906000526020600020905b8154815290600101906020018083116103e057829003601f168201915b50505050508152602001600282015481526020016003820180546104209061276e565b80601f016020809104026020016040519081016040528092919081815260200182805461044c9061276e565b80156104995780601f1061046e57610100808354040283529160200191610499565b820191906000526020600020905b81548152906001019060200180831161047c57829003601f168201915b505050505081526020016004820180546104b29061276e565b80601f01602080910402602001604051908101604052809291908181526020018280546104de9061276e565b801561052b5780601f106105005761010080835404028352916020019161052b565b820191906000526020600020905b81548152906001019060200180831161050e57829003601f168201915b505050505081526020016005820160009054906101000a900460ff161515151581526020016005820160019054906101000a900460ff161515151581526020016005820160029054906101000a900473ffffffffffffffffffffffffffffffffffffffff1673ffffffffffffffffffffffffffffffffffffffff1673ffffffffffffffffffffffffffffffffffffffff16815250508282815181106105d3576105d2612710565b5b602002602001018190525080806105e990612888565b91505061028e565b508091505090565b600360009054906101000a900473ffffffffffffffffffffffffffffffffffffffff1681565b600460009054906101000a900473ffffffffffffffffffffffffffffffffffffffff1681565b60008180516020810182018051848252602083016020850120818352809550505050505060009150905080600001805461067e9061276e565b80601f01602080910402602001604051908101604052809291908181526020018280546106aa9061276e565b80156106f75780601f106106cc576101008083540402835291602001916106f7565b820191906000526020600020905b8154815290600101906020018083116106da57829003601f168201915b50505050509080600101805461070c9061276e565b80601f01602080910402602001604051908101604052809291908181526020018280546107389061276e565b80156107855780601f1061075a57610100808354040283529160200191610785565b820191906000526020600020905b81548152906001019060200180831161076857829003601f168201915b5050505050908060020154908060030180546107a09061276e565b80601f01602080910402602001604051908101604052809291908181526020018280546107cc9061276e565b80156108195780601f106107ee57610100808354040283529160200191610819565b820191906000526020600020905b8154815290600101906020018083116107fc57829003601f168201915b50505050509080600401805461082e9061276e565b80601f016020809104026020016040519081016040528092919081815260200182805461085a9061276e565b80156108a75780601f1061087c576101008083540402835291602001916108a7565b820191906000526020600020905b81548152906001019060200180831161088a57829003601f168201915b5050505050908060050160009054906101000a900460ff16908060050160019054906101000a900460ff16908060050160029054906101000a900473ffffffffffffffffffffffffffffffffffffffff16905088565b6001602052816000526040600020818154811061091957600080fd5b906000526020600020016000915091505080546109359061276e565b80601f01602080910402602001604051908101604052809291908181526020018280546109619061276e565b80156109ae5780601f10610983576101008083540402835291602001916109ae565b820191906000526020600020905b81548152906001019060200180831161099157829003601f168201915b505050505081565b6001808111156109c9576109c86128d0565b5b600360009054906101000a900473ffffffffffffffffffffffffffffffffffffffff1673ffffffffffffffffffffffffffffffffffffffff166327820851336040518263ffffffff1660e01b8152600401610a249190612123565b602060405180830381865afa158015610a41573d6000803e3d6000fd5b505050506040513d601f19601f82011682018060405250810190610a659190612924565b6001811115610a7757610a766128d0565b5b14610ab7576040517f08c379a0000000000000000000000000000000000000000000000000000000008152600401610aae906129c3565b60405180910390fd5b60008083604051610ac89190612a14565b90815260200160405180910390206002015403610b1a576040517f08c379a0000000000000000000000000000000000000000000000000000000008152600401610b1190612a77565b60405180910390fd5b600082604051610b2a9190612a14565b908152602001604051809103902060050160009054906101000a900460ff16158015610b825750600082604051610b619190612a14565b908152602001604051809103902060050160019054906101000a900460ff16155b610bc1576040517f08c379a0000000000000000000000000000000000000000000000000000000008152600401610bb890612b09565b60405180910390fd5b80600083604051610bd29190612a14565b908152602001604051809103902060050160006101000a81548160ff0219169083151502179055508015600083604051610c0c9190612a14565b908152602001604051809103902060050160016101000a81548160ff02191690831515021790555060005b600280549050811015610d2657828051906020012060028281548110610c6057610c5f612710565b5b90600052602060002001604051610c779190612bcc565b604051809103902003610d135760026001600280549050610c989190612be3565b81548110610ca957610ca8612710565b5b9060005260206000200160028281548110610cc757610cc6612710565b5b906000526020600020019081610cdd9190612dcf565b506002805480610cf057610cef612eb7565b5b600190038181906000526020600020016000610d0c9190611d8f565b9055610d26565b8080610d1e90612888565b915050610c37565b507f1a48be0d899f93d12824892836eea7aee0260894c1847adb8b7f4c9f86aaee378282604051610d58929190612ee6565b60405180910390a15050565b60028181548110610d7457600080fd5b906000526020600020016000915090508054610d8f9061276e565b80601f0160208091040260200160405190810160405280929190818152602001828054610dbb9061276e565b8015610e085780601f10610ddd57610100808354040283529160200191610e08565b820191906000526020600020905b815481529060010190602001808311610deb57829003601f168201915b505050505081565b60606000600160008473ffffffffffffffffffffffffffffffffffffffff1673ffffffffffffffffffffffffffffffffffffffff168152602001908152602001600020805480602002602001604051908101604052809291908181526020016000905b82821015610f1f578382906000526020600020018054610e929061276e565b80601f0160208091040260200160405190810160405280929190818152602001828054610ebe9061276e565b8015610f0b5780601f10610ee057610100808354040283529160200191610f0b565b820191906000526020600020905b815481529060010190602001808311610eee57829003601f168201915b505050505081526020019060010190610e73565b5050505090506000815167ffffffffffffffff811115610f4257610f4161215c565b5b604051908082528060200260200182016040528015610f7b57816020015b610f68611d30565b815260200190600190039081610f605790505b50905060005b82518110156112dd576000838281518110610f9f57610f9e612710565b5b6020026020010151604051610fb49190612a14565b908152602001604051809103902060405180610100016040529081600082018054610fde9061276e565b80601f016020809104026020016040519081016040528092919081815260200182805461100a9061276e565b80156110575780601f1061102c57610100808354040283529160200191611057565b820191906000526020600020905b81548152906001019060200180831161103a57829003601f168201915b505050505081526020016001820180546110709061276e565b80601f016020809104026020016040519081016040528092919081815260200182805461109c9061276e565b80156110e95780601f106110be576101008083540402835291602001916110e9565b820191906000526020600020905b8154815290600101906020018083116110cc57829003601f168201915b505050505081526020016002820154815260200160038201805461110c9061276e565b80601f01602080910402602001604051908101604052809291908181526020018280546111389061276e565b80156111855780601f1061115a57610100808354040283529160200191611185565b820191906000526020600020905b81548152906001019060200180831161116857829003601f168201915b5050505050815260200160048201805461119e9061276e565b80601f01602080910402602001604051908101604052809291908181526020018280546111ca9061276e565b80156112175780601f106111ec57610100808354040283529160200191611217565b820191906000526020600020905b8154815290600101906020018083116111fa57829003601f168201915b505050505081526020016005820160009054906101000a900460ff161515151581526020016005820160019054906101000a900460ff161515151581526020016005820160029054906101000a900473ffffffffffffffffffffffffffffffffffffffff1673ffffffffffffffffffffffffffffffffffffffff1673ffffffffffffffffffffffffffffffffffffffff16815250508282815181106112bf576112be612710565b5b602002602001018190525080806112d590612888565b915050610f81565b508092505050919050565b6112f0611d30565b600080836040516113019190612a14565b90815260200160405180910390206002015403611353576040517f08c379a000000000000000000000000000000000000000000000000000000000815260040161134a90612a77565b60405180910390fd5b6000826040516113639190612a14565b90815260200160405180910390206040518061010001604052908160008201805461138d9061276e565b80601f01602080910402602001604051908101604052809291908181526020018280546113b99061276e565b80156114065780601f106113db57610100808354040283529160200191611406565b820191906000526020600020905b8154815290600101906020018083116113e957829003601f168201915b5050505050815260200160018201805461141f9061276e565b80601f016020809104026020016040519081016040528092919081815260200182805461144b9061276e565b80156114985780601f1061146d57610100808354040283529160200191611498565b820191906000526020600020905b81548152906001019060200180831161147b57829003601f168201915b50505050508152602001600282015481526020016003820180546114bb9061276e565b80601f01602080910402602001604051908101604052809291908181526020018280546114e79061276e565b80156115345780601f1061150957610100808354040283529160200191611534565b820191906000526020600020905b81548152906001019060200180831161151757829003601f168201915b5050505050815260200160048201805461154d9061276e565b80601f01602080910402602001604051908101604052809291908181526020018280546115799061276e565b80156115c65780601f1061159b576101008083540402835291602001916115c6565b820191906000526020600020905b8154815290600101906020018083116115a957829003601f168201915b505050505081526020016005820160009054906101000a900460ff161515151581526020016005820160019054906101000a900460ff161515151581526020016005820160029054906101000a900473ffffffffffffffffffffffffffffffffffffffff1673ffffffffffffffffffffffffffffffffffffffff1673ffffffffffffffffffffffffffffffffffffffff16815250509050919050565b60006001811115611676576116756128d0565b5b600360009054906101000a900473ffffffffffffffffffffffffffffffffffffffff1673ffffffffffffffffffffffffffffffffffffffff166327820851336040518263ffffffff1660e01b81526004016116d19190612123565b602060405180830381865afa1580156116ee573d6000803e3d6000fd5b505050506040513d601f19601f820116820180604052508101906117129190612924565b6001811115611724576117236128d0565b5b14611764576040517f08c379a000000000000000000000000000000000000000000000000000000000815260040161175b90612f88565b60405180910390fd5b600080846040516117759190612a14565b908152602001604051809103902060020154146117c7576040517f08c379a00000000000000000000000000000000000000000000000000000000081526004016117be90612ff4565b60405180910390fd5b6040518061010001604052806117dc33611a25565b81526020018581526020018381526020018481526020018281526020016000151581526020016000151581526020013373ffffffffffffffffffffffffffffffffffffffff168152506000846040516118359190612a14565b908152602001604051809103902060008201518160000190816118589190613014565b50602082015181600101908161186e9190613014565b5060408201518160020155606082015181600301908161188e9190613014565b5060808201518160040190816118a49190613014565b5060a08201518160050160006101000a81548160ff02191690831515021790555060c08201518160050160016101000a81548160ff02191690831515021790555060e08201518160050160026101000a81548173ffffffffffffffffffffffffffffffffffffffff021916908373ffffffffffffffffffffffffffffffffffffffff160217905550905050600160003373ffffffffffffffffffffffffffffffffffffffff1673ffffffffffffffffffffffffffffffffffffffff168152602001908152602001600020839080600181540180825580915050600190039060005260206000200160009091909190915090816119a09190613014565b506002839080600181540180825580915050600190039060005260206000200160009091909190915090816119d59190613014565b507f18045fea093f59bd9d8b3f5947f26ffd65ab0ac4f10e7dfb4e453aa368ee4ce983611a0133611a25565b86858533604051611a17969594939291906130e6565b60405180910390a150505050565b606060008273ffffffffffffffffffffffffffffffffffffffff1660001b905060006040518060400160405280601081526020017f303132333435363738396162636465660000000000000000000000000000000081525090506000602a67ffffffffffffffff811115611a9c57611a9b61215c565b5b6040519080825280601f01601f191660200182016040528015611ace5781602001600182028036833780820191505090505b5090507f300000000000000000000000000000000000000000000000000000000000000081600081518110611b0657611b05612710565b5b60200101907effffffffffffffffffffffffffffffffffffffffffffffffffffffffffffff1916908160001a9053507f780000000000000000000000000000000000000000000000000000000000000081600181518110611b6a57611b69612710565b5b60200101907effffffffffffffffffffffffffffffffffffffffffffffffffffffffffffff1916908160001a90535060005b6014811015611d245782600485600c84611bb69190613163565b60208110611bc757611bc6612710565b5b1a60f81b7effffffffffffffffffffffffffffffffffffffffffffffffffffffffffffff1916901c60f81c60ff1681518110611c0657611c05612710565b5b602001015160f81c60f81b82600283611c1f9190613197565b6002611c2b9190613163565b81518110611c3c57611c3b612710565b5b60200101907effffffffffffffffffffffffffffffffffffffffffffffffffffffffffffff1916908160001a90535082600f60f81b85600c84611c7f9190613163565b60208110611c9057611c8f612710565b5b1a60f81b1660f81c60ff1681518110611cac57611cab612710565b5b602001015160f81c60f81b82600283611cc59190613197565b6003611cd19190613163565b81518110611ce257611ce1612710565b5b60200101907effffffffffffffffffffffffffffffffffffffffffffffffffffffffffffff1916908160001a9053508080611d1c90612888565b915050611b9c565b50809350505050919050565b6040518061010001604052806060815260200160608152602001600081526020016060815260200160608152602001600015158152602001600015158152602001600073ffffffffffffffffffffffffffffffffffffffff1681525090565b508054611d9b9061276e565b6000825580601f10611dad5750611dcc565b601f016020900490600052602060002090810190611dcb9190611dcf565b5b50565b5b80821115611de8576000816000905550600101611dd0565b5090565b600081519050919050565b600082825260208201905092915050565b6000819050602082019050919050565b600081519050919050565b600082825260208201905092915050565b60005b83811015611e52578082015181840152602081019050611e37565b60008484015250505050565b6000601f19601f8301169050919050565b6000611e7a82611e18565b611e848185611e23565b9350611e94818560208601611e34565b611e9d81611e5e565b840191505092915050565b6000819050919050565b611ebb81611ea8565b82525050565b60008115159050919050565b611ed681611ec1565b82525050565b600073ffffffffffffffffffffffffffffffffffffffff82169050919050565b6000611f0782611edc565b9050919050565b611f1781611efc565b82525050565b6000610100830160008301518482036000860152611f3b8282611e6f565b91505060208301518482036020860152611f558282611e6f565b9150506040830151611f6a6040860182611eb2565b5060608301518482036060860152611f828282611e6f565b91505060808301518482036080860152611f9c8282611e6f565b91505060a0830151611fb160a0860182611ecd565b5060c0830151611fc460c0860182611ecd565b5060e0830151611fd760e0860182611f0e565b508091505092915050565b6000611fee8383611f1d565b905092915050565b6000602082019050919050565b600061200e82611dec565b6120188185611df7565b93508360208202850161202a85611e08565b8060005b8581101561206657848403895281516120478582611fe2565b945061205283611ff6565b925060208a0199505060018101905061202e565b50829750879550505050505092915050565b600060208201905081810360008301526120928184612003565b905092915050565b6000819050919050565b60006120bf6120ba6120b584611edc565b61209a565b611edc565b9050919050565b60006120d1826120a4565b9050919050565b60006120e3826120c6565b9050919050565b6120f3816120d8565b82525050565b600060208201905061210e60008301846120ea565b92915050565b61211d81611efc565b82525050565b60006020820190506121386000830184612114565b92915050565b6000604051905090565b600080fd5b600080fd5b600080fd5b600080fd5b7f4e487b7100000000000000000000000000000000000000000000000000000000600052604160045260246000fd5b61219482611e5e565b810181811067ffffffffffffffff821117156121b3576121b261215c565b5b80604052505050565b60006121c661213e565b90506121d2828261218b565b919050565b600067ffffffffffffffff8211156121f2576121f161215c565b5b6121fb82611e5e565b9050602081019050919050565b82818337600083830152505050565b600061222a612225846121d7565b6121bc565b90508281526020810184848401111561224657612245612157565b5b612251848285612208565b509392505050565b600082601f83011261226e5761226d612152565b5b813561227e848260208601612217565b91505092915050565b60006020828403121561229d5761229c612148565b5b600082013567ffffffffffffffff8111156122bb576122ba61214d565b5b6122c784828501612259565b91505092915050565b600082825260208201905092915050565b60006122ec82611e18565b6122f681856122d0565b9350612306818560208601611e34565b61230f81611e5e565b840191505092915050565b61232381611ea8565b82525050565b61233281611ec1565b82525050565b6000610100820190508181036000830152612353818b6122e1565b90508181036020830152612367818a6122e1565b9050612376604083018961231a565b818103606083015261238881886122e1565b9050818103608083015261239c81876122e1565b90506123ab60a0830186612329565b6123b860c0830185612329565b6123c560e0830184612114565b9998505050505050505050565b6123db81611efc565b81146123e657600080fd5b50565b6000813590506123f8816123d2565b92915050565b61240781611ea8565b811461241257600080fd5b50565b600081359050612424816123fe565b92915050565b6000806040838503121561244157612440612148565b5b600061244f858286016123e9565b925050602061246085828601612415565b9150509250929050565b6000602082019050818103600083015261248481846122e1565b905092915050565b61249581611ec1565b81146124a057600080fd5b50565b6000813590506124b28161248c565b92915050565b600080604083850312156124cf576124ce612148565b5b600083013567ffffffffffffffff8111156124ed576124ec61214d565b5b6124f985828601612259565b925050602061250a858286016124a3565b9150509250929050565b60006020828403121561252a57612529612148565b5b600061253884828501612415565b91505092915050565b60006020828403121561255757612556612148565b5b6000612565848285016123e9565b91505092915050565b600061010083016000830151848203600086015261258c8282611e6f565b915050602083015184820360208601526125a68282611e6f565b91505060408301516125bb6040860182611eb2565b50606083015184820360608601526125d38282611e6f565b915050608083015184820360808601526125ed8282611e6f565b91505060a083015161260260a0860182611ecd565b5060c083015161261560c0860182611ecd565b5060e083015161262860e0860182611f0e565b508091505092915050565b6000602082019050818103600083015261264d818461256e565b905092915050565b6000806000806080858703121561266f5761266e612148565b5b600085013567ffffffffffffffff81111561268d5761268c61214d565b5b61269987828801612259565b945050602085013567ffffffffffffffff8111156126ba576126b961214d565b5b6126c687828801612259565b93505060406126d787828801612415565b925050606085013567ffffffffffffffff8111156126f8576126f761214d565b5b61270487828801612259565b91505092959194509250565b7f4e487b7100000000000000000000000000000000000000000000000000000000600052603260045260246000fd5b7f4e487b7100000000000000000000000000000000000000000000000000000000600052602260045260246000fd5b6000600282049050600182168061278657607f821691505b6020821081036127995761279861273f565b5b50919050565b600081905092915050565b60008190508160005260206000209050919050565b600081546127cc8161276e565b6127d6818661279f565b945060018216600081146127f1576001811461280657612839565b60ff1983168652811515820286019350612839565b61280f856127aa565b60005b8381101561283157815481890152600182019150602081019050612812565b838801955050505b50505092915050565b600061284e82846127bf565b915081905092915050565b7f4e487b7100000000000000000000000000000000000000000000000000000000600052601160045260246000fd5b600061289382611ea8565b91507fffffffffffffffffffffffffffffffffffffffffffffffffffffffffffffffff82036128c5576128c4612859565b5b600182019050919050565b7f4e487b7100000000000000000000000000000000000000000000000000000000600052602160045260246000fd5b6002811061290c57600080fd5b50565b60008151905061291e816128ff565b92915050565b60006020828403121561293a57612939612148565b5b60006129488482850161290f565b91505092915050565b7f4f6e6c792074656163686572732063616e2063616c6c20746869732066756e6360008201527f74696f6e00000000000000000000000000000000000000000000000000000000602082015250565b60006129ad6024836122d0565b91506129b882612951565b604082019050919050565b600060208201905081810360008301526129dc816129a0565b9050919050565b60006129ee82611e18565b6129f8818561279f565b9350612a08818560208601611e34565b80840191505092915050565b6000612a2082846129e3565b915081905092915050565b7f436572746966696361746520646f6573206e6f74206578697374000000000000600082015250565b6000612a61601a836122d0565b9150612a6c82612a2b565b602082019050919050565b60006020820190508181036000830152612a9081612a54565b9050919050565b7f436572746966696361746520616c7265616479207665726966696564206f722060008201527f72656a6563746564000000000000000000000000000000000000000000000000602082015250565b6000612af36028836122d0565b9150612afe82612a97565b604082019050919050565b60006020820190508181036000830152612b2281612ae6565b9050919050565b600081905092915050565b60008190508160005260206000209050919050565b60008154612b568161276e565b612b608186612b29565b94506001821660008114612b7b5760018114612b9057612bc3565b60ff1983168652811515820286019350612bc3565b612b9985612b34565b60005b83811015612bbb57815481890152600182019150602081019050612b9c565b838801955050505b50505092915050565b6000612bd88284612b49565b915081905092915050565b6000612bee82611ea8565b9150612bf983611ea8565b9250828203905081811115612c1157612c10612859565b5b92915050565b600081549050612c268161276e565b9050919050565b60008190508160005260206000209050919050565b60006020601f8301049050919050565b600082821b905092915050565b600060088302612c8f7fffffffffffffffffffffffffffffffffffffffffffffffffffffffffffffffff82612c52565b612c998683612c52565b95508019841693508086168417925050509392505050565b6000612ccc612cc7612cc284611ea8565b61209a565b611ea8565b9050919050565b6000819050919050565b612ce683612cb1565b612cfa612cf282612cd3565b848454612c5f565b825550505050565b600090565b612d0f612d02565b612d1a818484612cdd565b505050565b5b81811015612d3e57612d33600082612d07565b600181019050612d20565b5050565b601f821115612d8357612d54816127aa565b612d5d84612c42565b81016020851015612d6c578190505b612d80612d7885612c42565b830182612d1f565b50505b505050565b600082821c905092915050565b6000612da660001984600802612d88565b1980831691505092915050565b6000612dbf8383612d95565b9150826002028217905092915050565b818103612ddd575050612eb5565b612de682612c17565b67ffffffffffffffff811115612dff57612dfe61215c565b5b612e09825461276e565b612e14828285612d42565b6000601f831160018114612e435760008415612e31578287015490505b612e3b8582612db3565b865550612eae565b601f198416612e5187612c2d565b9650612e5c866127aa565b60005b82811015612e8457848901548255600182019150600185019450602081019050612e5f565b86831015612ea15784890154612e9d601f891682612d95565b8355505b6001600288020188555050505b5050505050505b565b7f4e487b7100000000000000000000000000000000000000000000000000000000600052603160045260246000fd5b60006040820190508181036000830152612f0081856122e1565b9050612f0f6020830184612329565b9392505050565b7f4f6e6c792073747564656e74732063616e2063616c6c20746869732066756e6360008201527f74696f6e00000000000000000000000000000000000000000000000000000000602082015250565b6000612f726024836122d0565b9150612f7d82612f16565b604082019050919050565b60006020820190508181036000830152612fa181612f65565b9050919050565b7f436572746966696361746520494420616c726561647920657869737473000000600082015250565b6000612fde601d836122d0565b9150612fe982612fa8565b602082019050919050565b6000602082019050818103600083015261300d81612fd1565b9050919050565b61301d82611e18565b67ffffffffffffffff8111156130365761303561215c565b5b613040825461276e565b61304b828285612d42565b600060209050601f83116001811461307e576000841561306c578287015190505b6130768582612db3565b8655506130de565b601f19841661308c866127aa565b60005b828110156130b45784890151825560018201915060208501945060208101905061308f565b868310156130d157848901516130cd601f891682612d95565b8355505b6001600288020188555050505b505050505050565b600060c082019050818103600083015261310081896122e1565b9050818103602083015261311481886122e1565b9050818103604083015261312881876122e1565b9050613137606083018661231a565b818103608083015261314981856122e1565b905061315860a0830184612114565b979650505050505050565b600061316e82611ea8565b915061317983611ea8565b925082820190508082111561319157613190612859565b5b92915050565b60006131a282611ea8565b91506131ad83611ea8565b92508282026131bb81611ea8565b915082820484148315176131d2576131d1612859565b5b509291505056fea2646970667358221220d99bae0f336a6546505353c4c507f7e62371ab58b28c0e1b294132dc87ae51e664736f6c63430008130033",
  "linkReferences": {},
  "deployedLinkReferences": {}
}