{
  "_format": "hh-sol-artifact-1",
  "contractName": "CertificateVerification",
  "sourceName": "contracts/CertificateVerification.sol",
  "abi": [
    {
      "inputs": [],
      "stateMutability": "nonpayable",
      "type": "constructor"
    },
    {
      "anonymous": false,
      "inputs": [
        {
          "indexed": false,
          "internalType": "string",
          "name": "certificateId",
          "type": "string"
        },
        {
          "indexed": false,
          "internalType": "string",
          "name": "studentName",
          "type": "string"
        },
        {
          "indexed": false,
          "internalType": "string",
          "name": "courseName",
          "type": "string"
        },
        {
          "indexed": false,
          "internalType": "uint256",
          "name": "issueDate",
          "type": "uint256"
        },
        {
          "indexed": false,
          "internalType": "string",
          "name": "ipfsHash",
          "type": "string"
        }
      ],
      "name": "CertificateIssued",
      "type": "event"
    },
    {
      "inputs": [
        {
          "internalType": "string",
          "name": "",
          "type": "string"
        }
      ],
      "name": "certificates",
      "outputs": [
        {
          "internalType": "string",
          "name": "studentName",
          "type": "string"
        },
        {
          "internalType": "string",
          "name": "courseName",
          "type": "string"
        },
        {
          "internalType": "uint256",
          "name": "issueDate",
          "type": "uint256"
        },
        {
          "internalType": "string",
          "name": "certificateId",
          "type": "string"
        },
        {
          "internalType": "string",
          "name": "ipfsHash",
          "type": "string"
        },
        {
          "internalType": "bool",
          "name": "isValid",
          "type": "bool"
        }
      ],
      "stateMutability": "view",
      "type": "function"
    },
    {
      "inputs": [
        {
          "internalType": "string",
          "name": "studentName",
          "type": "string"
        },
        {
          "internalType": "string",
          "name": "courseName",
          "type": "string"
        },
        {
          "internalType": "string",
          "name": "certificateId",
          "type": "string"
        },
        {
          "internalType": "uint256",
          "name": "issueDate",
          "type": "uint256"
        },
        {
          "internalType": "string",
          "name": "ipfsHash",
          "type": "string"
        }
      ],
      "name": "issueCertificate",
      "outputs": [],
      "stateMutability": "nonpayable",
      "type": "function"
    },
    {
      "inputs": [],
      "name": "owner",
      "outputs": [
        {
          "internalType": "address",
          "name": "",
          "type": "address"
        }
      ],
      "stateMutability": "view",
      "type": "function"
    },
    {
      "inputs": [
        {
          "internalType": "string",
          "name": "certificateId",
          "type": "string"
        }
      ],
      "name": "verifyCertificate",
      "outputs": [
        {
          "internalType": "string",
          "name": "studentName",
          "type": "string"
        },
        {
          "internalType": "string",
          "name": "courseName",
          "type": "string"
        },
        {
          "internalType": "uint256",
          "name": "issueDate",
          "type": "uint256"
        },
        {
          "internalType": "string",
          "name": "ipfsHash",
          "type": "string"
        },
        {
          "internalType": "bool",
          "name": "isValid",
          "type": "bool"
        }
      ],
      "stateMutability": "view",
      "type": "function"
    }
  ],
  "bytecode": "0x608060405234801561001057600080fd5b5033600160006101000a81548173ffffffffffffffffffffffffffffffffffffffff021916908373ffffffffffffffffffffffffffffffffffffffff1602179055506112a8806100616000396000f3fe608060405234801561001057600080fd5b506004361061004b5760003560e01c8062b52f29146100505780638b23d8751461006c5780638da5cb5b146100a05780638f2b91ea146100be575b600080fd5b61006a60048036038101906100659190610a4a565b6100f3565b005b61008660048036038101906100819190610b35565b6102ff565b604051610097959493929190610c27565b60405180910390f35b6100a8610615565b6040516100b59190610cd0565b60405180910390f35b6100d860048036038101906100d39190610b35565b61063b565b6040516100ea96959493929190610ceb565b60405180910390f35b600160009054906101000a900473ffffffffffffffffffffffffffffffffffffffff1673ffffffffffffffffffffffffffffffffffffffff163373ffffffffffffffffffffffffffffffffffffffff1614610183576040517f08c379a000000000000000000000000000000000000000000000000000000000815260040161017a90610dda565b60405180910390fd5b600080846040516101949190610e36565b908152602001604051809103902060020154146101e6576040517f08c379a00000000000000000000000000000000000000000000000000000000081526004016101dd90610e99565b60405180910390fd5b6040518060c00160405280868152602001858152602001838152602001848152602001828152602001600115158152506000846040516102269190610e36565b9081526020016040518091039020600082015181600001908161024991906110c5565b50602082015181600101908161025f91906110c5565b5060408201518160020155606082015181600301908161027f91906110c5565b50608082015181600401908161029591906110c5565b5060a08201518160050160006101000a81548160ff0219169083151502179055509050507fa624be12790fd6ac838cb03bf8cd67606901956b9a6ea4c4f72c47c1eb81426383868685856040516102f0959493929190611197565b60405180910390a15050505050565b606080600060606000806000876040516103199190610e36565b90815260200160405180910390206040518060c001604052908160008201805461034290610ee8565b80601f016020809104026020016040519081016040528092919081815260200182805461036e90610ee8565b80156103bb5780601f10610390576101008083540402835291602001916103bb565b820191906000526020600020905b81548152906001019060200180831161039e57829003601f168201915b505050505081526020016001820180546103d490610ee8565b80601f016020809104026020016040519081016040528092919081815260200182805461040090610ee8565b801561044d5780601f106104225761010080835404028352916020019161044d565b820191906000526020600020905b81548152906001019060200180831161043057829003601f168201915b505050505081526020016002820154815260200160038201805461047090610ee8565b80601f016020809104026020016040519081016040528092919081815260200182805461049c90610ee8565b80156104e95780601f106104be576101008083540402835291602001916104e9565b820191906000526020600020905b8154815290600101906020018083116104cc57829003601f168201915b5050505050815260200160048201805461050290610ee8565b80601f016020809104026020016040519081016040528092919081815260200182805461052e90610ee8565b801561057b5780601f106105505761010080835404028352916020019161057b565b820191906000526020600020905b81548152906001019060200180831161055e57829003601f168201915b505050505081526020016005820160009054906101000a900460ff161515151581525050905060008160400151036105e8576040517f08c379a00000000000000000000000000000000000000000000000000000000081526004016105df90611252565b60405180910390fd5b80600001518160200151826040015183608001518460a00151955095509550955095505091939590929450565b600160009054906101000a900473ffffffffffffffffffffffffffffffffffffffff1681565b60008180516020810182018051848252602083016020850120818352809550505050505060009150905080600001805461067490610ee8565b80601f01602080910402602001604051908101604052809291908181526020018280546106a090610ee8565b80156106ed5780601f106106c2576101008083540402835291602001916106ed565b820191906000526020600020905b8154815290600101906020018083116106d057829003601f168201915b50505050509080600101805461070290610ee8565b80601f016020809104026020016040519081016040528092919081815260200182805461072e90610ee8565b801561077b5780601f106107505761010080835404028352916020019161077b565b820191906000526020600020905b81548152906001019060200180831161075e57829003601f168201915b50505050509080600201549080600301805461079690610ee8565b80601f01602080910402602001604051908101604052809291908181526020018280546107c290610ee8565b801561080f5780601f106107e45761010080835404028352916020019161080f565b820191906000526020600020905b8154815290600101906020018083116107f257829003601f168201915b50505050509080600401805461082490610ee8565b80601f016020809104026020016040519081016040528092919081815260200182805461085090610ee8565b801561089d5780601f106108725761010080835404028352916020019161089d565b820191906000526020600020905b81548152906001019060200180831161088057829003601f168201915b5050505050908060050160009054906101000a900460ff16905086565b6000604051905090565b600080fd5b600080fd5b600080fd5b600080fd5b6000601f19601f8301169050919050565b7f4e487b7100000000000000000000000000000000000000000000000000000000600052604160045260246000fd5b610921826108d8565b810181811067ffffffffffffffff821117156109405761093f6108e9565b5b80604052505050565b60006109536108ba565b905061095f8282610918565b919050565b600067ffffffffffffffff82111561097f5761097e6108e9565b5b610988826108d8565b9050602081019050919050565b82818337600083830152505050565b60006109b76109b284610964565b610949565b9050828152602081018484840111156109d3576109d26108d3565b5b6109de848285610995565b509392505050565b600082601f8301126109fb576109fa6108ce565b5b8135610a0b8482602086016109a4565b91505092915050565b6000819050919050565b610a2781610a14565b8114610a3257600080fd5b50565b600081359050610a4481610a1e565b92915050565b600080600080600060a08688031215610a6657610a656108c4565b5b600086013567ffffffffffffffff811115610a8457610a836108c9565b5b610a90888289016109e6565b955050602086013567ffffffffffffffff811115610ab157610ab06108c9565b5b610abd888289016109e6565b945050604086013567ffffffffffffffff811115610ade57610add6108c9565b5b610aea888289016109e6565b9350506060610afb88828901610a35565b925050608086013567ffffffffffffffff811115610b1c57610b1b6108c9565b5b610b28888289016109e6565b9150509295509295909350565b600060208284031215610b4b57610b4a6108c4565b5b600082013567ffffffffffffffff811115610b6957610b686108c9565b5b610b75848285016109e6565b91505092915050565b600081519050919050565b600082825260208201905092915050565b60005b83811015610bb8578082015181840152602081019050610b9d565b60008484015250505050565b6000610bcf82610b7e565b610bd98185610b89565b9350610be9818560208601610b9a565b610bf2816108d8565b840191505092915050565b610c0681610a14565b82525050565b60008115159050919050565b610c2181610c0c565b82525050565b600060a0820190508181036000830152610c418188610bc4565b90508181036020830152610c558187610bc4565b9050610c646040830186610bfd565b8181036060830152610c768185610bc4565b9050610c856080830184610c18565b9695505050505050565b600073ffffffffffffffffffffffffffffffffffffffff82169050919050565b6000610cba82610c8f565b9050919050565b610cca81610caf565b82525050565b6000602082019050610ce56000830184610cc1565b92915050565b600060c0820190508181036000830152610d058189610bc4565b90508181036020830152610d198188610bc4565b9050610d286040830187610bfd565b8181036060830152610d3a8186610bc4565b90508181036080830152610d4e8185610bc4565b9050610d5d60a0830184610c18565b979650505050505050565b7f4f6e6c79206f776e65722063616e2063616c6c20746869732066756e6374696f60008201527f6e00000000000000000000000000000000000000000000000000000000000000602082015250565b6000610dc4602183610b89565b9150610dcf82610d68565b604082019050919050565b60006020820190508181036000830152610df381610db7565b9050919050565b600081905092915050565b6000610e1082610b7e565b610e1a8185610dfa565b9350610e2a818560208601610b9a565b80840191505092915050565b6000610e428284610e05565b915081905092915050565b7f436572746966696361746520494420616c726561647920657869737473000000600082015250565b6000610e83601d83610b89565b9150610e8e82610e4d565b602082019050919050565b60006020820190508181036000830152610eb281610e76565b9050919050565b7f4e487b7100000000000000000000000000000000000000000000000000000000600052602260045260246000fd5b60006002820490506001821680610f0057607f821691505b602082108103610f1357610f12610eb9565b5b50919050565b60008190508160005260206000209050919050565b60006020601f8301049050919050565b600082821b905092915050565b600060088302610f7b7fffffffffffffffffffffffffffffffffffffffffffffffffffffffffffffffff82610f3e565b610f858683610f3e565b95508019841693508086168417925050509392505050565b6000819050919050565b6000610fc2610fbd610fb884610a14565b610f9d565b610a14565b9050919050565b6000819050919050565b610fdc83610fa7565b610ff0610fe882610fc9565b848454610f4b565b825550505050565b600090565b611005610ff8565b611010818484610fd3565b505050565b5b8181101561103457611029600082610ffd565b600181019050611016565b5050565b601f8211156110795761104a81610f19565b61105384610f2e565b81016020851015611062578190505b61107661106e85610f2e565b830182611015565b50505b505050565b600082821c905092915050565b600061109c6000198460080261107e565b1980831691505092915050565b60006110b5838361108b565b9150826002028217905092915050565b6110ce82610b7e565b67ffffffffffffffff8111156110e7576110e66108e9565b5b6110f18254610ee8565b6110fc828285611038565b600060209050601f83116001811461112f576000841561111d578287015190505b61112785826110a9565b86555061118f565b601f19841661113d86610f19565b60005b8281101561116557848901518255600182019150602085019450602081019050611140565b86831015611182578489015161117e601f89168261108b565b8355505b6001600288020188555050505b505050505050565b600060a08201905081810360008301526111b18188610bc4565b905081810360208301526111c58187610bc4565b905081810360408301526111d98186610bc4565b90506111e86060830185610bfd565b81810360808301526111fa8184610bc4565b90509695505050505050565b7f436572746966696361746520646f6573206e6f74206578697374000000000000600082015250565b600061123c601a83610b89565b915061124782611206565b602082019050919050565b6000602082019050818103600083015261126b8161122f565b905091905056fea264697066735822122078cc6c8592dab2e251a8cc53975c8bafeb7e98ee3dc7dd0904dc260317c0b13d64736f6c63430008130033",
  "linkReferences": {},
  "deployedLinkReferences": {}
}