{
  "_format": "hh-sol-artifact-1",
  "contractName": "UserManagement",
  "sourceName": "contracts/UserManagement.sol",
  "abi": [
    {
      "inputs": [],
      "stateMutability": "nonpayable",
      "type": "constructor"
    },
    {
      "anonymous": false,
      "inputs": [
        {
          "indexed": false,
          "internalType": "address",
          "name": "userAddress",
          "type": "address"
        },
        {
          "indexed": false,
          "internalType": "string",
          "name": "username",
          "type": "string"
        },
        {
          "indexed": false,
          "internalType": "enum UserManagement.Role",
          "name": "role",
          "type": "uint8"
        }
      ],
      "name": "UserRegistered",
      "type": "event"
    },
    {
      "inputs": [
        {
          "internalType": "address",
          "name": "userAddress",
          "type": "address"
        }
      ],
      "name": "getUserRole",
      "outputs": [
        {
          "internalType": "enum UserManagement.Role",
          "name": "",
          "type": "uint8"
        }
      ],
      "stateMutability": "view",
      "type": "function"
    },
    {
      "inputs": [
        {
          "internalType": "string",
          "name": "passwordHash",
          "type": "string"
        }
      ],
      "name": "login",
      "outputs": [
        {
          "internalType": "bool",
          "name": "success",
          "type": "bool"
        },
        {
          "internalType": "uint8",
          "name": "userRole",
          "type": "uint8"
        }
      ],
      "stateMutability": "view",
      "type": "function"
    },
    {
      "inputs": [],
      "name": "owner",
      "outputs": [
        {
          "internalType": "address",
          "name": "",
          "type": "address"
        }
      ],
      "stateMutability": "view",
      "type": "function"
    },
    {
      "inputs": [
        {
          "internalType": "address",
          "name": "userAddress",
          "type": "address"
        },
        {
          "internalType": "string",
          "name": "username",
          "type": "string"
        },
        {
          "internalType": "string",
          "name": "passwordHash",
          "type": "string"
        },
        {
          "internalType": "enum UserManagement.Role",
          "name": "role",
          "type": "uint8"
        }
      ],
      "name": "registerUser",
      "outputs": [],
      "stateMutability": "nonpayable",
      "type": "function"
    },
    {
      "inputs": [
        {
          "internalType": "address",
          "name": "",
          "type": "address"
        }
      ],
      "name": "users",
      "outputs": [
        {
          "internalType": "string",
          "name": "username",
          "type": "string"
        },
        {
          "internalType": "string",
          "name": "passwordHash",
          "type": "string"
        },
        {
          "internalType": "enum UserManagement.Role",
          "name": "role",
          "type": "uint8"
        },
        {
          "internalType": "bool",
          "name": "exists",
          "type": "bool"
        }
      ],
      "stateMutability": "view",
      "type": "function"
    }
  ],
  "bytecode": "0x608060405234801561001057600080fd5b5033600160006101000a81548173ffffffffffffffffffffffffffffffffffffffff021916908373ffffffffffffffffffffffffffffffffffffffff16021790555061123c806100616000396000f3fe608060405234801561001057600080fd5b50600436106100575760003560e01c8063278208511461005c5780633a7d280c1461008c5780636f8826ed146100bd5780638da5cb5b146100d9578063a87430ba146100f7575b600080fd5b610076600480360381019061007191906108b5565b61012a565b6040516100839190610959565b60405180910390f35b6100a660048036038101906100a19190610aba565b610210565b6040516100b4929190610b3a565b60405180910390f35b6100d760048036038101906100d29190610b88565b610470565b005b6100e16106c3565b6040516100ee9190610c36565b60405180910390f35b610111600480360381019061010c91906108b5565b6106e9565b6040516101219493929190610cd0565b60405180910390f35b60008060008373ffffffffffffffffffffffffffffffffffffffff1673ffffffffffffffffffffffffffffffffffffffff16815260200190815260200160002060020160019054906101000a900460ff166101ba576040517f08c379a00000000000000000000000000000000000000000000000000000000081526004016101b190610d6f565b60405180910390fd5b6000808373ffffffffffffffffffffffffffffffffffffffff1673ffffffffffffffffffffffffffffffffffffffff16815260200190815260200160002060020160009054906101000a900460ff169050919050565b60008060008060003373ffffffffffffffffffffffffffffffffffffffff1673ffffffffffffffffffffffffffffffffffffffff16815260200190815260200160002060405180608001604052908160008201805461026e90610dbe565b80601f016020809104026020016040519081016040528092919081815260200182805461029a90610dbe565b80156102e75780601f106102bc576101008083540402835291602001916102e7565b820191906000526020600020905b8154815290600101906020018083116102ca57829003601f168201915b5050505050815260200160018201805461030090610dbe565b80601f016020809104026020016040519081016040528092919081815260200182805461032c90610dbe565b80156103795780601f1061034e57610100808354040283529160200191610379565b820191906000526020600020905b81548152906001019060200180831161035c57829003601f168201915b505050505081526020016002820160009054906101000a900460ff1660018111156103a7576103a66108e2565b5b60018111156103b9576103b86108e2565b5b81526020016002820160019054906101000a900460ff16151515158152505090508060600151801561043a5750836040516020016103f79190610e2b565b6040516020818303038152906040528051906020012081602001516040516020016104229190610e2b565b60405160208183030381529060405280519060200120145b1561046257600181604001516001811115610458576104576108e2565b5b925092505061046b565b60008092509250505b915091565b600160009054906101000a900473ffffffffffffffffffffffffffffffffffffffff1673ffffffffffffffffffffffffffffffffffffffff163373ffffffffffffffffffffffffffffffffffffffff1614610500576040517f08c379a00000000000000000000000000000000000000000000000000000000081526004016104f790610eb4565b60405180910390fd5b6000808573ffffffffffffffffffffffffffffffffffffffff1673ffffffffffffffffffffffffffffffffffffffff16815260200190815260200160002060020160019054906101000a900460ff161561058f576040517f08c379a000000000000000000000000000000000000000000000000000000000815260040161058690610f20565b60405180910390fd5b60405180608001604052808481526020018381526020018260018111156105b9576105b86108e2565b5b8152602001600115158152506000808673ffffffffffffffffffffffffffffffffffffffff1673ffffffffffffffffffffffffffffffffffffffff168152602001908152602001600020600082015181600001908161061891906110f6565b50602082015181600101908161062e91906110f6565b5060408201518160020160006101000a81548160ff0219169083600181111561065a576106596108e2565b5b021790555060608201518160020160016101000a81548160ff0219169083151502179055509050507fc2e5d5da58bd71d1a2d14cdef02a4256d971b728088f8190d067ccfbae3bd73e8484836040516106b5939291906111c8565b60405180910390a150505050565b600160009054906101000a900473ffffffffffffffffffffffffffffffffffffffff1681565b600060205280600052604060002060009150905080600001805461070c90610dbe565b80601f016020809104026020016040519081016040528092919081815260200182805461073890610dbe565b80156107855780601f1061075a57610100808354040283529160200191610785565b820191906000526020600020905b81548152906001019060200180831161076857829003601f168201915b50505050509080600101805461079a90610dbe565b80601f01602080910402602001604051908101604052809291908181526020018280546107c690610dbe565b80156108135780601f106107e857610100808354040283529160200191610813565b820191906000526020600020905b8154815290600101906020018083116107f657829003601f168201915b5050505050908060020160009054906101000a900460ff16908060020160019054906101000a900460ff16905084565b6000604051905090565b600080fd5b600080fd5b600073ffffffffffffffffffffffffffffffffffffffff82169050919050565b600061088282610857565b9050919050565b61089281610877565b811461089d57600080fd5b50565b6000813590506108af81610889565b92915050565b6000602082840312156108cb576108ca61084d565b5b60006108d9848285016108a0565b91505092915050565b7f4e487b7100000000000000000000000000000000000000000000000000000000600052602160045260246000fd5b60028110610922576109216108e2565b5b50565b600081905061093382610911565b919050565b600061094382610925565b9050919050565b61095381610938565b82525050565b600060208201905061096e600083018461094a565b92915050565b600080fd5b600080fd5b6000601f19601f8301169050919050565b7f4e487b7100000000000000000000000000000000000000000000000000000000600052604160045260246000fd5b6109c78261097e565b810181811067ffffffffffffffff821117156109e6576109e561098f565b5b80604052505050565b60006109f9610843565b9050610a0582826109be565b919050565b600067ffffffffffffffff821115610a2557610a2461098f565b5b610a2e8261097e565b9050602081019050919050565b82818337600083830152505050565b6000610a5d610a5884610a0a565b6109ef565b905082815260208101848484011115610a7957610a78610979565b5b610a84848285610a3b565b509392505050565b600082601f830112610aa157610aa0610974565b5b8135610ab1848260208601610a4a565b91505092915050565b600060208284031215610ad057610acf61084d565b5b600082013567ffffffffffffffff811115610aee57610aed610852565b5b610afa84828501610a8c565b91505092915050565b60008115159050919050565b610b1881610b03565b82525050565b600060ff82169050919050565b610b3481610b1e565b82525050565b6000604082019050610b4f6000830185610b0f565b610b5c6020830184610b2b565b9392505050565b60028110610b7057600080fd5b50565b600081359050610b8281610b63565b92915050565b60008060008060808587031215610ba257610ba161084d565b5b6000610bb0878288016108a0565b945050602085013567ffffffffffffffff811115610bd157610bd0610852565b5b610bdd87828801610a8c565b935050604085013567ffffffffffffffff811115610bfe57610bfd610852565b5b610c0a87828801610a8c565b9250506060610c1b87828801610b73565b91505092959194509250565b610c3081610877565b82525050565b6000602082019050610c4b6000830184610c27565b92915050565b600081519050919050565b600082825260208201905092915050565b60005b83811015610c8b578082015181840152602081019050610c70565b60008484015250505050565b6000610ca282610c51565b610cac8185610c5c565b9350610cbc818560208601610c6d565b610cc58161097e565b840191505092915050565b60006080820190508181036000830152610cea8187610c97565b90508181036020830152610cfe8186610c97565b9050610d0d604083018561094a565b610d1a6060830184610b0f565b95945050505050565b7f5573657220646f6573206e6f7420657869737400000000000000000000000000600082015250565b6000610d59601383610c5c565b9150610d6482610d23565b602082019050919050565b60006020820190508181036000830152610d8881610d4c565b9050919050565b7f4e487b7100000000000000000000000000000000000000000000000000000000600052602260045260246000fd5b60006002820490506001821680610dd657607f821691505b602082108103610de957610de8610d8f565b5b50919050565b600081905092915050565b6000610e0582610c51565b610e0f8185610def565b9350610e1f818560208601610c6d565b80840191505092915050565b6000610e378284610dfa565b915081905092915050565b7f4f6e6c79206f776e65722063616e2063616c6c20746869732066756e6374696f60008201527f6e00000000000000000000000000000000000000000000000000000000000000602082015250565b6000610e9e602183610c5c565b9150610ea982610e42565b604082019050919050565b60006020820190508181036000830152610ecd81610e91565b9050919050565b7f5573657220616c72656164792065786973747300000000000000000000000000600082015250565b6000610f0a601383610c5c565b9150610f1582610ed4565b602082019050919050565b60006020820190508181036000830152610f3981610efd565b9050919050565b60008190508160005260206000209050919050565b60006020601f8301049050919050565b600082821b905092915050565b600060088302610fa27fffffffffffffffffffffffffffffffffffffffffffffffffffffffffffffffff82610f65565b610fac8683610f65565b95508019841693508086168417925050509392505050565b6000819050919050565b6000819050919050565b6000610ff3610fee610fe984610fc4565b610fce565b610fc4565b9050919050565b6000819050919050565b61100d83610fd8565b61102161101982610ffa565b848454610f72565b825550505050565b600090565b611036611029565b611041818484611004565b505050565b5b818110156110655761105a60008261102e565b600181019050611047565b5050565b601f8211156110aa5761107b81610f40565b61108484610f55565b81016020851015611093578190505b6110a761109f85610f55565b830182611046565b50505b505050565b600082821c905092915050565b60006110cd600019846008026110af565b1980831691505092915050565b60006110e683836110bc565b9150826002028217905092915050565b6110ff82610c51565b67ffffffffffffffff8111156111185761111761098f565b5b6111228254610dbe565b61112d828285611069565b600060209050601f831160018114611160576000841561114e578287015190505b61115885826110da565b8655506111c0565b601f19841661116e86610f40565b60005b8281101561119657848901518255600182019150602085019450602081019050611171565b868310156111b357848901516111af601f8916826110bc565b8355505b6001600288020188555050505b505050505050565b60006060820190506111dd6000830186610c27565b81810360208301526111ef8185610c97565b90506111fe604083018461094a565b94935050505056fea264697066735822122081223264a96270c07c66d31164089bcb091902bcc989a93675f112b54858f45564736f6c63430008130033",
  "linkReferences": {},
  "deployedLinkReferences": {}
}